:0400000047EF07F0CF
:10060000004A4F414F205649544F5220202020206D
:100610002000524235207061726120696E69636901
:100620006172004C6F746531203D004C6F7465320F
:0B063000203D00554E494645490000A2
:10063C0020EE60F010EE30F0080EDBCFE3FFE806A2
:10064C00FCE220EE4AF010EE1AF00B0EDBCFE3FFCB
:10065C00E806FCE220EE56F010EE26F0090EDBCF99
:10066C00E3FFE806FCE2060EC16EC30E926EF00EBE
:10067C00936E000E946E000E956E000E966EF1EC5D
:10068C0006F0B3EC07F0A9EC07F0800E71EC07F064
:10069C00330E086E060E096E1FEC07F0C00E71ECDF
:1006AC0007F0010E086E060E096E1FEC07F0120E15
:1006BC00086E060E096E1FEC07F081BA68EF03F0A6
:1006CC006AEF03F063EF03F0010E71EC07F0800E9C
:1006DC0071EC07F0230E086E060E096E1FEC07F086
:1006EC00C00E71EC07F02B0E086E060E096E1FEC97
:1006FC0007F0000ED5EC05F001C008F002C009F0BF
:10070C00000E0B6E0A0E0A6E86EC07F008C00EF097
:10071C0009C00FF0000E116ECC0E106E1DEC06F021
:10072C000E50456E020ED5EC05F001C008F002C06B
:10073C0009F0000E0B6E0A0E0A6E86EC07F008C06C
:10074C000EF009C00FF0000E116ECC0E106E1DECE9
:10075C0006F00E50466E890E71EC07F045C015F090
:10076C00166A3F0E176E000E186EEFEC04F046C0C2
:10077C0015F0166A390E176E000E186E6BEC04F03D
:10078C0042C047F03CC048F047504824016E026A12
:10079C000236000E046E020E036E73EC05F001506F
:1007AC00496E330E4960DDEF03F0DFEF03F0EAEF43
:1007BC0003F0300E4964E5EF03F0E7EF03F0EAEFE6
:1007CC0003F0200E57EC06F0350E4960F0EF03F005
:1007DC00F2EF03F0FDEF03F0320E4964F8EF03F093
:1007EC00FAEF03F0FDEF03F0400E57EC06F0360E77
:1007FC00496003EF04F005EF04F010EF04F0340E41
:10080C0049640BEF04F00DEF04F010EF04F05C0EF4
:10081C0057EC06F0300E4918D8A417EF04F019EF76
:10082C0004F01CEF04F0000E57EC06F0310E476498
:10083C0022EF04F024EF04F025EF04F08182320E55
:10084C0047602BEF04F02DEF04F02EEF04F08192B3
:10085C00310E486434EF04F036EF04F037EF04F057
:10086C008184320E48603DEF04F03FEF04F040EF1E
:10087C0004F0819447505CEC07F043505CEC07F0BB
:10088C00DF0E5CEC07F0200E5CEC07F049505CECE2
:10089C0007F043505CEC07F0DF0E5CEC07F0C90E80
:1008AC0071EC07F048505CEC07F043505CEC07F03F
:1008BC00DF0E5CEC07F0000E026E0A0E016E8DEC82
:1008CC0006F07FEF03F000EF00F015C00EF016C03D
:1008DC000FF0270E116E100E106E1DEC06F00E5060
:1008EC00300F17C0D9FF18C0DAFFDF6E20EE01F011
:1008FC001750D9261850DA22270E046E100E036EEC
:10090C0015C001F016C002F0BFEC06F001C00EF0ED
:10091C0002C00FF0030E116EE80E106E1DEC06F007
:10092C000E50300FDF6E20EE02F01750D926185003
:10093C00DA22030E046EE80E036E15C001F016C029
:10094C0002F0BFEC06F001C00EF002C00FF0000E7A
:10095C00116E640E106E1DEC06F00E50300FDF6E33
:10096C0020EE03F01750D9261850DA22000E046E30
:10097C00640E036E15C001F016C002F0BFEC06F059
:10098C0001C00EF002C00FF0000E116E0A0E106EB8
:10099C001DEC06F00E50300FDF6E20EE04F01750F9
:1009AC00D9261850DA2215C001F016C002F0000E3C
:1009BC00046E0A0E036EBFEC06F00150300FDF6EB2
:1009CC0020EE05F01750D9261850DA22000EDF6EF3
:1009DC00120015C00EF016C00FF0270E116E100E7F
:1009EC00106E1DEC06F00E50300F17C0D9FF18C05A
:1009FC00DAFFDF6E20EE01F01750D9261850DA22FC
:100A0C00270E046E100E036E15C001F016C002F016
:100A1C00BFEC06F001C00EF002C00FF0030E116E19
:100A2C00E80E106E1DEC06F00E50300FDF6E20EE4F
:100A3C0002F01750D9261850DA22030E046EE80E75
:100A4C00036E15C001F016C002F0BFEC06F001C039
:100A5C000EF002C00FF0000E116E640E106E1DEC45
:100A6C0006F00E50300FDF6E20EE03F01750D92633
:100A7C001850DA22000E046E640E036E15C001F0DD
:100A8C0016C002F0BFEC06F001C00EF002C00FF071
:100A9C00000E116E0A0E106E1DEC06F00E50300F8B
:100AAC00DF6E20EE04F01750D9261850DA2215C04C
:100ABC0001F016C002F0000E046E0A0E036EBFECBD
:100ACC0006F00150300FDF6E20EE05F01750D926DE
:100ADC001850DA22000EDF6E1200000E066E04BEF5
:100AEC007CEF05F07AEF05F082EF05F0036C041E45
:100AFC00D8B0042A010E066E02BE89EF05F087EF0E
:100B0C0005F08FEF05F0016C021ED8B0022A010E21
:100B1C00061A000E086E000E076E03500410D8B4AF
:100B2C009AEF05F09CEF05F0C4EF05F0010E056E91
:100B3C00A4EF05F0D89003360436052A04AEA9EFCD
:100B4C0005F0ABEF05F0A0EF05F0D89007360836AE
:100B5C000350015C04500258D8A0B7EF05F0B9EF70
:100B6C0005F0BEEF05F00350015E0450025A0780F9
:100B7C00D89004320332052EABEF05F00650D8B4F2
:100B8C00CAEF05F0CCEF05F0D0EF05F0076C081EAE
:100B9C00D8B0082A07C001F008C002F01200076E96
:100BAC00E4EF05F0010EC26EFDEF05F0090EC26E0A
:100BBC00FDEF05F0050EC26EFDEF05F00750036E5C
:100BCC00046A0450000AD8B4EEEF05F0FDEF05F00E
:100BDC000350000AD8B4D8EF05F0010AD8B4DCEF02
:100BEC0005F0030AD8B4E0EF05F0FDEF05F0C28282
:100BFC00C2B203EF06F005EF06F0FEEF05F0C3CF2F
:100C0C0003F0060E046ED8900332042E09EF06F0A2
:100C1C000350C4CF05F0066AD89005360636D89036
:100C2C00053606360510016E0650026E1200000ED7
:100C3C00136E000E126E10501110D8B428EF06F07F
:100C4C002AEF06F052EF06F0010E146E32EF06F0AA
:100C5C00D89010361136142A11AE37EF06F039EF52
:100C6C0006F02EEF06F0D8901236133610500E5CAC
:100C7C0011500F58D8A045EF06F047EF06F04CEF97
:100C8C0006F010500E5E11500F5A1280D89011328F
:100C9C001032142E39EF06F012C00EF013C00FF004
:100CAC001200176E010ECB24086E096A000E092281
:100CBC0017C00AF00B6A86EC07F008C018F009C0E0
:100CCC0019F018C00EF019C00FF0000E116E190EAD
:100CDC00106E1DEC06F00EC018F00FC019F0FF0ED0
:100CEC001816030E191618C015F019C016F0D89066
:100CFC0016321532D890163215321550BE6E18C0F9
:100D0C0015F0030E15161538F00BBD121200000E5F
:100D1C00046E000E036EB3EF06F0000E056E280E87
:100D2C0005649BEF06F09DEF06F09FEF06F0B1EF28
:100D3C0006F0000E066E020E0664A7EF06F0A9EF91
:100D4C0006F0ABEF06F0AEEF06F0062AA1EF06F0C8
:100D5C00052A95EF06F0034A042A0150035C025061
:100D6C000458D8A0BCEF06F0BEEF06F093EF06F0E7
:100D7C00120003500410D8B4C6EF06F0C8EF06F00A
:100D8C00ECEF06F0010E056ED0EF06F0D8900336AE
:100D9C000436052A04AED5EF06F0D7EF06F0CCEFFB
:100DAC0006F00350015C04500258D8A0E0EF06F0A6
:100DBC00E2EF06F0E6EF06F00350015E0450025A33
:100DCC00D89004320332052ED7EF06F001C001F0A3
:100DDC0002C002F0120084928494000E026E140E73
:100DEC00016E8DEC06F08482380E71EC07F0000E6B
:100DFC00026E050E016E8DEC06F0380E71EC07F0EC
:100E0C00000E026E010E016E8DEC06F0380E71ECC8
:100E1C0007F0080E71EC07F00F0E71EC07F0010EE5
:100E2C0071EC07F0380E71EC07F0800E71EC07F0E6
:100E3C001200000E0C6E32EF07F00C5008240A6EF4
:100E4C00000E09200B6E0AC0F6FF0BC0F7FF08005E
:100E5C00F5505CEC07F00C2A0C5008240A6E000EBE
:100E6C0009200B6E0AC0F6FF0BC0F7FF0800F55007
:100E7C000009D8A444EF07F046EF07F023EF07F082
:100E8C001200320EF66E0F0EF76E000EF86E00EEBC
:100E9C004AF010EE1FF00900F5CFEEFFE550E150DF
:100EAC00FAE1000EF86E00011EEF03F0076E84826B
:100EBC000750BAEC07F08484000E026E030E016E2C
:100ECC008DEC06F08492000E026E030E016E8DEC1A
:100EDC0006F084821200076E84820750BAEC07F089
:100EEC008494000E026E030E016E8DEC06F084925B
:100EFC00000E026E030E016E8DEC06F08482120061
:100F0C0008500A02F3CF0CF0F4CF0DF008500B028E
:100F1C00F3500D2609500A02F3500D260CC008F0B0
:100F2C000DC009F012004A4F414F205649544F5200
:100F3C0000003230313930303037323420202055F7
:050F4C004E4946454935
:100F520094929494030ECA12CA840C0EBD120C0E03
:100F6200BA121200010EC26E0B0EC16E010EC06EDD
:0A0F72001200016E01C083FF12009F
:020000040020DA
:08000000FFFFFFFFFFFFFFFF00
:020000040030CA
:0E000000FF027100FF8380FF0FC00FE00F4072
:00000001FF
